{
  "address": "0xe7f1725E7734CE288F8367e1Bb143E90bb3F0512",
  "abi": [
    {
      "anonymous": false,
      "inputs": [
        {
          "indexed": true,
          "internalType": "address",
          "name": "owner",
          "type": "address"
        },
        {
          "indexed": true,
          "internalType": "address",
          "name": "spender",
          "type": "address"
        },
        {
          "indexed": false,
          "internalType": "uint256",
          "name": "value",
          "type": "uint256"
        }
      ],
      "name": "Approval",
      "type": "event"
    },
    {
      "anonymous": false,
      "inputs": [
        {
          "indexed": false,
          "internalType": "uint8",
          "name": "version",
          "type": "uint8"
        }
      ],
      "name": "Initialized",
      "type": "event"
    },
    {
      "anonymous": false,
      "inputs": [
        {
          "indexed": true,
          "internalType": "address",
          "name": "from",
          "type": "address"
        },
        {
          "indexed": true,
          "internalType": "address",
          "name": "to",
          "type": "address"
        },
        {
          "indexed": false,
          "internalType": "uint256",
          "name": "value",
          "type": "uint256"
        }
      ],
      "name": "Transfer",
      "type": "event"
    },
    {
      "inputs": [
        {
          "internalType": "address",
          "name": "owner",
          "type": "address"
        },
        {
          "internalType": "address",
          "name": "spender",
          "type": "address"
        }
      ],
      "name": "allowance",
      "outputs": [
        {
          "internalType": "uint256",
          "name": "",
          "type": "uint256"
        }
      ],
      "stateMutability": "view",
      "type": "function"
    },
    {
      "inputs": [
        {
          "internalType": "address",
          "name": "spender",
          "type": "address"
        },
        {
          "internalType": "uint256",
          "name": "amount",
          "type": "uint256"
        }
      ],
      "name": "approve",
      "outputs": [
        {
          "internalType": "bool",
          "name": "",
          "type": "bool"
        }
      ],
      "stateMutability": "nonpayable",
      "type": "function"
    },
    {
      "inputs": [
        {
          "internalType": "address",
          "name": "account",
          "type": "address"
        }
      ],
      "name": "balanceOf",
      "outputs": [
        {
          "internalType": "uint256",
          "name": "",
          "type": "uint256"
        }
      ],
      "stateMutability": "view",
      "type": "function"
    },
    {
      "inputs": [],
      "name": "decimals",
      "outputs": [
        {
          "internalType": "uint8",
          "name": "",
          "type": "uint8"
        }
      ],
      "stateMutability": "view",
      "type": "function"
    },
    {
      "inputs": [
        {
          "internalType": "address",
          "name": "spender",
          "type": "address"
        },
        {
          "internalType": "uint256",
          "name": "subtractedValue",
          "type": "uint256"
        }
      ],
      "name": "decreaseAllowance",
      "outputs": [
        {
          "internalType": "bool",
          "name": "",
          "type": "bool"
        }
      ],
      "stateMutability": "nonpayable",
      "type": "function"
    },
    {
      "inputs": [
        {
          "internalType": "address",
          "name": "spender",
          "type": "address"
        },
        {
          "internalType": "uint256",
          "name": "addedValue",
          "type": "uint256"
        }
      ],
      "name": "increaseAllowance",
      "outputs": [
        {
          "internalType": "bool",
          "name": "",
          "type": "bool"
        }
      ],
      "stateMutability": "nonpayable",
      "type": "function"
    },
    {
      "inputs": [
        {
          "internalType": "uint256",
          "name": "initialSupply",
          "type": "uint256"
        }
      ],
      "name": "initialize",
      "outputs": [],
      "stateMutability": "nonpayable",
      "type": "function"
    },
    {
      "inputs": [],
      "name": "name",
      "outputs": [
        {
          "internalType": "string",
          "name": "",
          "type": "string"
        }
      ],
      "stateMutability": "view",
      "type": "function"
    },
    {
      "inputs": [],
      "name": "symbol",
      "outputs": [
        {
          "internalType": "string",
          "name": "",
          "type": "string"
        }
      ],
      "stateMutability": "view",
      "type": "function"
    },
    {
      "inputs": [],
      "name": "totalSupply",
      "outputs": [
        {
          "internalType": "uint256",
          "name": "",
          "type": "uint256"
        }
      ],
      "stateMutability": "view",
      "type": "function"
    },
    {
      "inputs": [
        {
          "internalType": "address",
          "name": "to",
          "type": "address"
        },
        {
          "internalType": "uint256",
          "name": "amount",
          "type": "uint256"
        }
      ],
      "name": "transfer",
      "outputs": [
        {
          "internalType": "bool",
          "name": "",
          "type": "bool"
        }
      ],
      "stateMutability": "nonpayable",
      "type": "function"
    },
    {
      "inputs": [
        {
          "internalType": "address",
          "name": "from",
          "type": "address"
        },
        {
          "internalType": "address",
          "name": "to",
          "type": "address"
        },
        {
          "internalType": "uint256",
          "name": "amount",
          "type": "uint256"
        }
      ],
      "name": "transferFrom",
      "outputs": [
        {
          "internalType": "bool",
          "name": "",
          "type": "bool"
        }
      ],
      "stateMutability": "nonpayable",
      "type": "function"
    },
    {
      "inputs": [],
      "name": "version",
      "outputs": [
        {
          "internalType": "uint256",
          "name": "",
          "type": "uint256"
        }
      ],
      "stateMutability": "pure",
      "type": "function"
    }
  ],
  "transactionHash": "0xbab8ba976df355e2e13ddabe6197ef643a81bbc0289bbcdcbb7ee8194dd7deb3",
  "args": [],
  "numDeployments": 1,
  "solcInputHash": "c14193a5e3597c533d3194ad467ad28f",
  "bytecode": "0x608060405234801561001057600080fd5b50611988806100206000396000f3fe608060405234801561001057600080fd5b50600436106100cf5760003560e01c806354fd4d501161008c578063a457c2d711610066578063a457c2d71461022a578063a9059cbb1461025a578063dd62ed3e1461028a578063fe4b84df146102ba576100cf565b806354fd4d50146101be57806370a08231146101dc57806395d89b411461020c576100cf565b806306fdde03146100d4578063095ea7b3146100f257806318160ddd1461012257806323b872dd14610140578063313ce56714610170578063395093511461018e575b600080fd5b6100dc6102d6565b6040516100e99190611310565b60405180910390f35b61010c6004803603810190610107919061109a565b610368565b60405161011991906112da565b60405180910390f35b61012a61038b565b6040516101379190611472565b60405180910390f35b61015a60048036038101906101559190611047565b610395565b60405161016791906112da565b60405180910390f35b6101786103c4565b604051610185919061148d565b60405180910390f35b6101a860048036038101906101a3919061109a565b6103cd565b6040516101b591906112da565b60405180910390f35b6101c6610404565b6040516101d39190611472565b60405180910390f35b6101f660048036038101906101f19190610fda565b61040d565b6040516102039190611472565b60405180910390f35b610214610456565b6040516102219190611310565b60405180910390f35b610244600480360381019061023f919061109a565b6104e8565b60405161025191906112da565b60405180910390f35b610274600480360381019061026f919061109a565b61055f565b60405161028191906112da565b60405180910390f35b6102a4600480360381019061029f9190611007565b610582565b6040516102b19190611472565b60405180910390f35b6102d460048036038101906102cf91906110da565b610609565b005b6060603680546102e5906115b4565b80601f0160208091040260200160405190810160405280929190818152602001828054610311906115b4565b801561035e5780601f106103335761010080835404028352916020019161035e565b820191906000526020600020905b81548152906001019060200180831161034157829003601f168201915b5050505050905090565b6000806103736107be565b90506103808185856107c6565b600191505092915050565b6000603554905090565b6000806103a06107be565b90506103ad858285610991565b6103b8858585610a1d565b60019150509392505050565b60006012905090565b6000806103d86107be565b90506103f98185856103ea8589610582565b6103f491906114c4565b6107c6565b600191505092915050565b60006001905090565b6000603360008373ffffffffffffffffffffffffffffffffffffffff1673ffffffffffffffffffffffffffffffffffffffff168152602001908152602001600020549050919050565b606060378054610465906115b4565b80601f0160208091040260200160405190810160405280929190818152602001828054610491906115b4565b80156104de5780601f106104b3576101008083540402835291602001916104de565b820191906000526020600020905b8154815290600101906020018083116104c157829003601f168201915b5050505050905090565b6000806104f36107be565b905060006105018286610582565b905083811015610546576040517f08c379a000000000000000000000000000000000000000000000000000000000815260040161053d90611432565b60405180910390fd5b61055382868684036107c6565b60019250505092915050565b60008061056a6107be565b9050610577818585610a1d565b600191505092915050565b6000603460008473ffffffffffffffffffffffffffffffffffffffff1673ffffffffffffffffffffffffffffffffffffffff16815260200190815260200160002060008373ffffffffffffffffffffffffffffffffffffffff1673ffffffffffffffffffffffffffffffffffffffff16815260200190815260200160002054905092915050565b60008060019054906101000a900460ff1615905080801561063a5750600160008054906101000a900460ff1660ff16105b80610667575061064930610ca1565b1580156106665750600160008054906101000a900460ff1660ff16145b5b6106a6576040517f08c379a000000000000000000000000000000000000000000000000000000000815260040161069d906113b2565b60405180910390fd5b60016000806101000a81548160ff021916908360ff16021790555080156106e3576001600060016101000a81548160ff0219169083151502179055505b6107576040518060400160405280600b81526020017f53696d706c65546f6b656e0000000000000000000000000000000000000000008152506040518060400160405280600281526020017f5354000000000000000000000000000000000000000000000000000000000000815250610cc4565b6107613383610d21565b80156107ba5760008060016101000a81548160ff0219169083151502179055507f7f26b83ff96e1f2b6a682f133852f6798a09c465da95921460cefb384740249860016040516107b191906112f5565b60405180910390a15b5050565b600033905090565b600073ffffffffffffffffffffffffffffffffffffffff168373ffffffffffffffffffffffffffffffffffffffff161415610836576040517f08c379a000000000000000000000000000000000000000000000000000000000815260040161082d906113f2565b60405180910390fd5b600073ffffffffffffffffffffffffffffffffffffffff168273ffffffffffffffffffffffffffffffffffffffff1614156108a6576040517f08c379a000000000000000000000000000000000000000000000000000000000815260040161089d90611352565b60405180910390fd5b80603460008573ffffffffffffffffffffffffffffffffffffffff1673ffffffffffffffffffffffffffffffffffffffff16815260200190815260200160002060008473ffffffffffffffffffffffffffffffffffffffff1673ffffffffffffffffffffffffffffffffffffffff168152602001908152602001600020819055508173ffffffffffffffffffffffffffffffffffffffff168373ffffffffffffffffffffffffffffffffffffffff167f8c5be1e5ebec7d5bd14f71427d1e84f3dd0314c0f7b2291e5b200ac8c7c3b925836040516109849190611472565b60405180910390a3505050565b600061099d8484610582565b90507fffffffffffffffffffffffffffffffffffffffffffffffffffffffffffffffff8114610a175781811015610a09576040517f08c379a0000000000000000000000000000000000000000000000000000000008152600401610a0090611372565b60405180910390fd5b610a1684848484036107c6565b5b50505050565b600073ffffffffffffffffffffffffffffffffffffffff168373ffffffffffffffffffffffffffffffffffffffff161415610a8d576040517f08c379a0000000000000000000000000000000000000000000000000000000008152600401610a84906113d2565b60405180910390fd5b600073ffffffffffffffffffffffffffffffffffffffff168273ffffffffffffffffffffffffffffffffffffffff161415610afd576040517f08c379a0000000000000000000000000000000000000000000000000000000008152600401610af490611332565b60405180910390fd5b610b08838383610e82565b6000603360008573ffffffffffffffffffffffffffffffffffffffff1673ffffffffffffffffffffffffffffffffffffffff16815260200190815260200160002054905081811015610b8f576040517f08c379a0000000000000000000000000000000000000000000000000000000008152600401610b8690611392565b60405180910390fd5b818103603360008673ffffffffffffffffffffffffffffffffffffffff1673ffffffffffffffffffffffffffffffffffffffff1681526020019081526020016000208190555081603360008573ffffffffffffffffffffffffffffffffffffffff1673ffffffffffffffffffffffffffffffffffffffff1681526020019081526020016000206000828254610c2491906114c4565b925050819055508273ffffffffffffffffffffffffffffffffffffffff168473ffffffffffffffffffffffffffffffffffffffff167fddf252ad1be2c89b69c2b068fc378daa952ba7f163c4a11628f55a4df523b3ef84604051610c889190611472565b60405180910390a3610c9b848484610e87565b50505050565b6000808273ffffffffffffffffffffffffffffffffffffffff163b119050919050565b600060019054906101000a900460ff16610d13576040517f08c379a0000000000000000000000000000000000000000000000000000000008152600401610d0a90611412565b60405180910390fd5b610d1d8282610e8c565b5050565b600073ffffffffffffffffffffffffffffffffffffffff168273ffffffffffffffffffffffffffffffffffffffff161415610d91576040517f08c379a0000000000000000000000000000000000000000000000000000000008152600401610d8890611452565b60405180910390fd5b610d9d60008383610e82565b8060356000828254610daf91906114c4565b9250508190555080603360008473ffffffffffffffffffffffffffffffffffffffff1673ffffffffffffffffffffffffffffffffffffffff1681526020019081526020016000206000828254610e0591906114c4565b925050819055508173ffffffffffffffffffffffffffffffffffffffff16600073ffffffffffffffffffffffffffffffffffffffff167fddf252ad1be2c89b69c2b068fc378daa952ba7f163c4a11628f55a4df523b3ef83604051610e6a9190611472565b60405180910390a3610e7e60008383610e87565b5050565b505050565b505050565b600060019054906101000a900460ff16610edb576040517f08c379a0000000000000000000000000000000000000000000000000000000008152600401610ed290611412565b60405180910390fd5b8160369080519060200190610ef1929190610f0d565b508060379080519060200190610f08929190610f0d565b505050565b828054610f19906115b4565b90600052602060002090601f016020900481019282610f3b5760008555610f82565b82601f10610f5457805160ff1916838001178555610f82565b82800160010185558215610f82579182015b82811115610f81578251825591602001919060010190610f66565b5b509050610f8f9190610f93565b5090565b5b80821115610fac576000816000905550600101610f94565b5090565b600081359050610fbf81611924565b92915050565b600081359050610fd48161193b565b92915050565b600060208284031215610ff057610fef611644565b5b6000610ffe84828501610fb0565b91505092915050565b6000806040838503121561101e5761101d611644565b5b600061102c85828601610fb0565b925050602061103d85828601610fb0565b9150509250929050565b6000806000606084860312156110605761105f611644565b5b600061106e86828701610fb0565b935050602061107f86828701610fb0565b925050604061109086828701610fc5565b9150509250925092565b600080604083850312156110b1576110b0611644565b5b60006110bf85828601610fb0565b92505060206110d085828601610fc5565b9150509250929050565b6000602082840312156110f0576110ef611644565b5b60006110fe84828501610fc5565b91505092915050565b6111108161152c565b82525050565b61111f8161156f565b82525050565b6000611130826114a8565b61113a81856114b3565b935061114a818560208601611581565b61115381611649565b840191505092915050565b600061116b6023836114b3565b91506111768261165a565b604082019050919050565b600061118e6022836114b3565b9150611199826116a9565b604082019050919050565b60006111b1601d836114b3565b91506111bc826116f8565b602082019050919050565b60006111d46026836114b3565b91506111df82611721565b604082019050919050565b60006111f7602e836114b3565b915061120282611770565b604082019050919050565b600061121a6025836114b3565b9150611225826117bf565b604082019050919050565b600061123d6024836114b3565b91506112488261180e565b604082019050919050565b6000611260602b836114b3565b915061126b8261185d565b604082019050919050565b60006112836025836114b3565b915061128e826118ac565b604082019050919050565b60006112a6601f836114b3565b91506112b1826118fb565b602082019050919050565b6112c581611558565b82525050565b6112d481611562565b82525050565b60006020820190506112ef6000830184611107565b92915050565b600060208201905061130a6000830184611116565b92915050565b6000602082019050818103600083015261132a8184611125565b905092915050565b6000602082019050818103600083015261134b8161115e565b9050919050565b6000602082019050818103600083015261136b81611181565b9050919050565b6000602082019050818103600083015261138b816111a4565b9050919050565b600060208201905081810360008301526113ab816111c7565b9050919050565b600060208201905081810360008301526113cb816111ea565b9050919050565b600060208201905081810360008301526113eb8161120d565b9050919050565b6000602082019050818103600083015261140b81611230565b9050919050565b6000602082019050818103600083015261142b81611253565b9050919050565b6000602082019050818103600083015261144b81611276565b9050919050565b6000602082019050818103600083015261146b81611299565b9050919050565b600060208201905061148760008301846112bc565b92915050565b60006020820190506114a260008301846112cb565b92915050565b600081519050919050565b600082825260208201905092915050565b60006114cf82611558565b91506114da83611558565b9250827fffffffffffffffffffffffffffffffffffffffffffffffffffffffffffffffff0382111561150f5761150e6115e6565b5b828201905092915050565b600061152582611538565b9050919050565b60008115159050919050565b600073ffffffffffffffffffffffffffffffffffffffff82169050919050565b6000819050919050565b600060ff82169050919050565b600061157a82611562565b9050919050565b60005b8381101561159f578082015181840152602081019050611584565b838111156115ae576000848401525b50505050565b600060028204905060018216806115cc57607f821691505b602082108114156115e0576115df611615565b5b50919050565b7f4e487b7100000000000000000000000000000000000000000000000000000000600052601160045260246000fd5b7f4e487b7100000000000000000000000000000000000000000000000000000000600052602260045260246000fd5b600080fd5b6000601f19601f8301169050919050565b7f45524332303a207472616e7366657220746f20746865207a65726f206164647260008201527f6573730000000000000000000000000000000000000000000000000000000000602082015250565b7f45524332303a20617070726f766520746f20746865207a65726f20616464726560008201527f7373000000000000000000000000000000000000000000000000000000000000602082015250565b7f45524332303a20696e73756666696369656e7420616c6c6f77616e6365000000600082015250565b7f45524332303a207472616e7366657220616d6f756e742065786365656473206260008201527f616c616e63650000000000000000000000000000000000000000000000000000602082015250565b7f496e697469616c697a61626c653a20636f6e747261637420697320616c72656160008201527f647920696e697469616c697a6564000000000000000000000000000000000000602082015250565b7f45524332303a207472616e736665722066726f6d20746865207a65726f20616460008201527f6472657373000000000000000000000000000000000000000000000000000000602082015250565b7f45524332303a20617070726f76652066726f6d20746865207a65726f2061646460008201527f7265737300000000000000000000000000000000000000000000000000000000602082015250565b7f496e697469616c697a61626c653a20636f6e7472616374206973206e6f74206960008201527f6e697469616c697a696e67000000000000000000000000000000000000000000602082015250565b7f45524332303a2064656372656173656420616c6c6f77616e63652062656c6f7760008201527f207a65726f000000000000000000000000000000000000000000000000000000602082015250565b7f45524332303a206d696e7420746f20746865207a65726f206164647265737300600082015250565b61192d8161151a565b811461193857600080fd5b50565b61194481611558565b811461194f57600080fd5b5056fea26469706673582212204e23dc0a227b8ff670eeec34924e08ac599a95f47c2cc301fc7d7f52608c519564736f6c63430008070033",
  "devdoc": {
    "kind": "dev",
    "methods": {
      "allowance(address,address)": {
        "details": "See {IERC20-allowance}."
      },
      "approve(address,uint256)": {
        "details": "See {IERC20-approve}. NOTE: If `amount` is the maximum `uint256`, the allowance is not updated on `transferFrom`. This is semantically equivalent to an infinite approval. Requirements: - `spender` cannot be the zero address."
      },
      "balanceOf(address)": {
        "details": "See {IERC20-balanceOf}."
      },
      "decimals()": {
        "details": "Returns the number of decimals used to get its user representation. For example, if `decimals` equals `2`, a balance of `505` tokens should be displayed to a user as `5.05` (`505 / 10 ** 2`). Tokens usually opt for a value of 18, imitating the relationship between Ether and Wei. This is the value {ERC20} uses, unless this function is overridden; NOTE: This information is only used for _display_ purposes: it in no way affects any of the arithmetic of the contract, including {IERC20-balanceOf} and {IERC20-transfer}."
      },
      "decreaseAllowance(address,uint256)": {
        "details": "Atomically decreases the allowance granted to `spender` by the caller. This is an alternative to {approve} that can be used as a mitigation for problems described in {IERC20-approve}. Emits an {Approval} event indicating the updated allowance. Requirements: - `spender` cannot be the zero address. - `spender` must have allowance for the caller of at least `subtractedValue`."
      },
      "increaseAllowance(address,uint256)": {
        "details": "Atomically increases the allowance granted to `spender` by the caller. This is an alternative to {approve} that can be used as a mitigation for problems described in {IERC20-approve}. Emits an {Approval} event indicating the updated allowance. Requirements: - `spender` cannot be the zero address."
      },
      "name()": {
        "details": "Returns the name of the token."
      },
      "symbol()": {
        "details": "Returns the symbol of the token, usually a shorter version of the name."
      },
      "totalSupply()": {
        "details": "See {IERC20-totalSupply}."
      },
      "transfer(address,uint256)": {
        "details": "See {IERC20-transfer}. Requirements: - `to` cannot be the zero address. - the caller must have a balance of at least `amount`."
      },
      "transferFrom(address,address,uint256)": {
        "details": "See {IERC20-transferFrom}. Emits an {Approval} event indicating the updated allowance. This is not required by the EIP. See the note at the beginning of {ERC20}. NOTE: Does not update the allowance if the current allowance is the maximum `uint256`. Requirements: - `from` and `to` cannot be the zero address. - `from` must have a balance of at least `amount`. - the caller must have allowance for ``from``'s tokens of at least `amount`."
      }
    },
    "version": 1
  },
  "userdoc": {
    "kind": "user",
    "methods": {},
    "version": 1
  },
  "storageLayout": {
    "storage": [
      {
        "astId": 6,
        "contract": "contracts/SimpleToken.sol:SimpleToken",
        "label": "_initialized",
        "offset": 0,
        "slot": "0",
        "type": "t_uint8"
      },
      {
        "astId": 9,
        "contract": "contracts/SimpleToken.sol:SimpleToken",
        "label": "_initializing",
        "offset": 1,
        "slot": "0",
        "type": "t_bool"
      },
      {
        "astId": 1148,
        "contract": "contracts/SimpleToken.sol:SimpleToken",
        "label": "__gap",
        "offset": 0,
        "slot": "1",
        "type": "t_array(t_uint256)50_storage"
      },
      {
        "astId": 169,
        "contract": "contracts/SimpleToken.sol:SimpleToken",
        "label": "_balances",
        "offset": 0,
        "slot": "51",
        "type": "t_mapping(t_address,t_uint256)"
      },
      {
        "astId": 175,
        "contract": "contracts/SimpleToken.sol:SimpleToken",
        "label": "_allowances",
        "offset": 0,
        "slot": "52",
        "type": "t_mapping(t_address,t_mapping(t_address,t_uint256))"
      },
      {
        "astId": 177,
        "contract": "contracts/SimpleToken.sol:SimpleToken",
        "label": "_totalSupply",
        "offset": 0,
        "slot": "53",
        "type": "t_uint256"
      },
      {
        "astId": 179,
        "contract": "contracts/SimpleToken.sol:SimpleToken",
        "label": "_name",
        "offset": 0,
        "slot": "54",
        "type": "t_string_storage"
      },
      {
        "astId": 181,
        "contract": "contracts/SimpleToken.sol:SimpleToken",
        "label": "_symbol",
        "offset": 0,
        "slot": "55",
        "type": "t_string_storage"
      },
      {
        "astId": 760,
        "contract": "contracts/SimpleToken.sol:SimpleToken",
        "label": "__gap",
        "offset": 0,
        "slot": "56",
        "type": "t_array(t_uint256)45_storage"
      }
    ],
    "types": {
      "t_address": {
        "encoding": "inplace",
        "label": "address",
        "numberOfBytes": "20"
      },
      "t_array(t_uint256)45_storage": {
        "base": "t_uint256",
        "encoding": "inplace",
        "label": "uint256[45]",
        "numberOfBytes": "1440"
      },
      "t_array(t_uint256)50_storage": {
        "base": "t_uint256",
        "encoding": "inplace",
        "label": "uint256[50]",
        "numberOfBytes": "1600"
      },
      "t_bool": {
        "encoding": "inplace",
        "label": "bool",
        "numberOfBytes": "1"
      },
      "t_mapping(t_address,t_mapping(t_address,t_uint256))": {
        "encoding": "mapping",
        "key": "t_address",
        "label": "mapping(address => mapping(address => uint256))",
        "numberOfBytes": "32",
        "value": "t_mapping(t_address,t_uint256)"
      },
      "t_mapping(t_address,t_uint256)": {
        "encoding": "mapping",
        "key": "t_address",
        "label": "mapping(address => uint256)",
        "numberOfBytes": "32",
        "value": "t_uint256"
      },
      "t_string_storage": {
        "encoding": "bytes",
        "label": "string",
        "numberOfBytes": "32"
      },
      "t_uint256": {
        "encoding": "inplace",
        "label": "uint256",
        "numberOfBytes": "32"
      },
      "t_uint8": {
        "encoding": "inplace",
        "label": "uint8",
        "numberOfBytes": "1"
      }
    }
  }
}